:020000040800F2
:10000000D80800209D010008031200088310000892
:1000100001120008A90200083918000800000000B9
:10002000000000000000000000000000DB140008D9
:100030001703000800000000D91400080515000887
:10004000B7010008B7010008B7010008B7010008B0
:10005000B7010008B7010008B7010008B7010008A0
:10006000B7010008B7010008B7010008AD02000899
:10007000B7010008B7010008B7010008B701000880
:10008000B7010008B7010008B7010008B701000870
:10009000B7010008B7010008B7010008B701000860
:1000A000B7010008B7010008B7010008B701000850
:1000B000B7010008B7010008B7010008B701000840
:1000C000B7010008B7010008B7010008B701000830
:1000D000B7010008B7010008B7010008B701000820
:1000E00019030008B7010008B7010008B7010008AC
:1000F000B7010008B7010008B7010008B701000800
:10010000B7010008B7010008B7010008B7010008EF
:10011000B7010008B7010008B7010008B7010008DF
:10012000B7010008B7010008B7010008B7010008CF
:10013000B7010008B7010008B7010008B7010008BF
:10014000B7010008B7010008B7010008B7010008AF
:10015000B7010008B7010008B7010008B70100089F
:10016000B7010008B7010008B7010008B70100088F
:10017000B7010008B7010008B7010008000000003F
:10018000B7010008B7010008DFF80CD000F07AF8DA
:1001900000480047CD180008D808002006488047CE
:1001A00006480047FEE7FEE7FEE7FEE7FEE7FEE75C
:1001B000FEE7FEE7FEE7FEE7A51500088901000857
:1001C0002DE9F05F0546002092469B46884606468C
:1001D000814640241BE0284641464746224600F01F
:1001E00041F853465A46C01A914110D31146184659
:1001F000224600F028F82D1A67EB01084F462246E8
:100200000120002100F01FF817EB00094E41201ECD
:10021000A4F10104DFDC484631462A464346BDE8E6
:10022000F09FD2B201E000F8012B491EFBD27047CB
:100230000022F6E710B513460A4604461946FFF7B2
:10024000F0FF204610BD202A04DB203A00FA02F11C
:10025000002070479140C2F1200320FA03F31943B4
:1002600090407047202A04DB203A21FA02F0002156
:10027000704721FA02F3D040C2F1200291400843B6
:1002800019467047064C074D06E0E06840F0010350
:1002900094E8070098471034AC42F6D3FFF778FF94
:1002A0001831000838310008FEE70000014800F06E
:1002B00039B800BF2004002001686FF00F0240F23F
:1002C000FF3352FA81F2994318235F2AB2FBF3F20B
:1002D00003A388BF043181659A5CC26508467047F4
:1002E000000610160006101680B5D0F800C0DCF825
:1002F00000E02EF4802ECCF800E0CCF804308068CA
:100300004028084608BF1046CCF8080008BF0A4637
:10031000CCF80C2080BD70474FF4804000F0ACB9A1
:1003200070470000F8B504460020082100905848A6
:100330000568D4E916603768814039420CD02268DC
:1003400013685B0708D5136823F004031360B160DA
:10035000616D41F00101616501218140394208D0A0
:1003600022685269120604D5B160616D41F0020144
:10037000616504218140394208D0226812689207E1
:1003800004D5B160616D41F00401616510218140C7
:10039000394217D020680268120713D5B16002688D
:1003A0000168520306D4C9055EBF016821F0080147
:1003B000016001E0080301D4216C00E0A16C09B1E7
:1003C00020468847E16D202000FA01F23A423BD0F6
:1003D00020680368DB0637D5B26094F835300268D0
:1003E000052B19D122F016020260426922F0800228
:1003F0004261226C0AB9A26C1AB1026822F00802AA
:1004000002603F208840B060012084F83500002061
:1004100084F83400216D37E0016852030CD4C9051B
:100420000ED4016821F010010160012084F835002C
:10043000002084F8340003E0080301D4616C00E07C
:10044000E16B09B120468847606D00B3606DC0075D
:1004500019D005214FF4165084F83510B5FBF0F093
:1004600021680A6822F001020A60009A0132824281
:10047000009202D80A68D207F7D1012084F835002B
:10048000002084F83400E16C09B120468847F8BDAB
:10049000080000202DE9F041044600F0C9F9002CC5
:1004A0004FD00546022084F83500002084F834003F
:1004B0002168086820F00100086005E000F0B8F944
:1004C000401B052840D821680868C007F6D1086895
:1004D000394AD4E9013504F10C0800EA020C98E825
:1004E000C101D4E9072E43EA0C032B431843636A86
:1004F00030433843042B40EA080040EA020040EA57
:100500000E0225D1D4E90BE042EA0E02BEF1000F43
:1005100040EA0200086051F8140FA26A20F00300BC
:1005200040EA020040F0040C19D0B8F5005F28D072
:10053000B8F1000F35D1022A36D0012A2BD09AB358
:100540000DE00120BDE8F08103252023032013E006
:100550000A6051F8140F20F0070040EA030C20460F
:10056000C1F800C0FFF7A8FEE16D3F22002301257E
:1005700002FA01F181600020636584F83550BDE81E
:10058000F081032AEBD8012540230120DFE802F0A7
:10059000020C0203F0E7AEF1C070B0FA80F040093F
:1005A00004E0032A04D3DAD1CEF300600028D6D0C9
:1005B000012540230120DFE73F8010F0B0B504465D
:1005C00090F8340001282CD00120A56D84F8340067
:1005D00094F83500012821D1022084F8350000204C
:1005E00060652046FFF780FEE06D3F2101FA00F0D4
:1005F000A8602068016841F016010160416941F07E
:1006000080014161216C19B1016841F0080101606C
:10061000016841F0010101600020B0BD002084F8B4
:1006200034000220B0BD0000B0B5044600F000F96F
:100630000546A148611C007818BF044400F0F8F892
:10064000401BA042FAD3B0BDB0F5804F18BF704731
:1006500010B5084C4FF48051204600F0DDF82046DC
:100660004FF4005100F0D8F8C820BDE81040FFF763
:10067000DBBF00BF0004024003490A68024214BF06
:1006800008607047FFF7E0BF143C01402DE9F84FC8
:100690005B4A4FF0080A4FF0010B4FF000084FF093
:1006A000000E9042574A08BF4FF0070A02444FEA33
:1006B000B223072B38BF4FEAB22A0022102A08BF04
:1006C000BDE8F88F0B680BFA02F6334200F0918018
:1006D0004B6843F01004122C13D16FF003040EF09A
:1006E0001C030F2704EA520507FA03FC05442C6A91
:1006F00024EA0C0C0C6904FA03F343EA0C032B62A2
:100700004B68032703F00305122B07FA08F4076868
:1007100005FA08F56FEA040C27EA040747EA05071B
:10072000076013D80BFA03F414F0061F0ED0846888
:10073000CD6804EA0C0405FA08F52C438460C3F381
:10074000001445689440B5432C434460C4688D68E8
:10075000DB0004EA0C0705FA08F547EA0507C7605D
:1007600047D50023284C0EF00C050093284BA446D7
:100770001F461B6843F480433B603B6803F480439F
:10078000009322F003032344224C009FA1461F59EB
:100790000F24AC400AFA05F5A7432F4343F809702C
:1007A000DCF800304D6843EA0607EC0358BF23EA43
:1007B0000607CCF80070AC03DCF8043043EA060707
:1007C00058BF23EA0607CCF80470EC02DCF80830C6
:1007D00043EA060758BF23EA06070C4BCCF808701B
:1007E000AD021C461B6843EA060758BF23EA06070A
:1007F000276008F102080EF1040E01325EE700BF27
:10080000001C02400000FEBF003C01400C3C0140C7
:100810004438024008FCFFFF42690A408A4208BF90
:10082000090481617047002A08BF0904816170478B
:1008300005480068704700BF1F48034900780A68F0
:1008400010440860704700BFD004002080B50B48FA
:10085000016841F400710160016841F48061016048
:10086000016841F480710160032000F071F80020FC
:1008700000F006F800F022F8002080BD003C0240A5
:1008800070B50D4E04464FF47A713078B1FBF0F03C
:1008900089490968B1FBF0F000F0DEFA01250F2C60
:1008A00008D838B94FF0FF3021460022002500F06B
:1008B00031F87460284670BD0000002082B000202E
:1008C0000C4901904A6842F480424A604A6802F446
:1008D00080420192019A0090086840F080500860C0
:1008E000086800F0805000900098052002B000F0E9
:1008F0002FB800BF40380240002808DB00F01F017D
:100900000122400902FA01F1014A42F82010704721
:1009100000E100E080B5144B1B68C3F3022CBCF16E
:10092000030E8CF007034FF0FF3C38BF4FF0000E72
:10093000042B28BF04230CFA03F399430CFA0EF39B
:1009400001FA0EF19A431143BDE8804000F0ACBFBC
:1009500005494FF6FF030A681A4060F30A2203486C
:1009600010430860704700BF0CED00E00000FA057E
:100970002DE9F041002800F08380434B044688466F
:10098000D3F8000400F00F00884207D283F80084F7
:10099000D3F8000400F00F00404571D120688107B2
:1009A00011D5410742BF996841F4E05199600107B0
:1009B00042BF996841F4604199609968A26821F04A
:1009C000F00111439960C0072AD06068811E022996
:1009D00003D21968890109D452E0012803D11968AA
:1009E000890303D44CE01968890749D599681D46E5
:1009F00021F0030108439860FFF71AFF064641F211
:100A00008837A86861682B4600F00C00B0EB810FB6
:100A100006D0FFF70DFF801BB842F2D9032430E067
:100A2000D3F8000400F00F00404507D983F8008494
:100A3000D3F8000400F00F00404521D120684107A1
:100A400005D59968E26821F4E051114399600007E7
:100A500006D59868216920F4604040EAC10098609A
:100A60001C4600F02FF8A168084A0024C1F30311C6
:100A7000515CC840104908600020FFF701FF00E00A
:100A800001242046BDE8F081003802403E190008EC
:100A900009480A490A4A00680968C1F38221515C81
:100AA000C840704704480549054A00680968C1F311
:100AB0004231515CC84070470800002008380240AD
:100AC0004E19000810B5144C606800F00C01134872
:100AD000082904D0042904BF114810BD10BD2168A5
:100AE000236801F03F0221685B02C1F3881105D43D
:100AF000A1FB00010023FFF763FB03E00848484324
:100B0000B0FBF2F021680222C1F3014102EB410186
:100B1000B0FBF1F010BD00BF043802400024F40027
:100B200000127A002DE9FC41002800F005810446FE
:100B30000078AF4EC0072FD0B06800F00C0004283A
:100B400023D0B06800F00C00082802D17068400281
:100B50001BD46768B7F5803F07D03068B7F5A02F82
:100B600040F00B8140F480203060306840F48030E9
:100B70003060FFF75DFE0546306880030CD4FFF758
:100B800057FE401B6428F7D99DE03068800303D5E9
:100B90006068002800F0D080207880072BD5B068EE
:100BA00010F00C0F07D0B06800F00C00082809D135
:100BB0007068400206D43068800715D5E0680128C7
:100BC00012D0B9E0E1688B4800297ED00121016094
:100BD000FFF72EFE05463068800705D4FFF728FE94
:100BE000401B0228F7D96EE03068216920F0F80038
:100BF00040EAC10030602078000721D5606978B1F3
:100C00007C480121C0F8801EFFF712FE0546706F78
:100C1000800715D4FFF70CFE401B0228F7D952E0DD
:100C200074480021C0F8801EFFF702FE0546706F71
:100C3000800705D5FFF7FCFD401B0228F7D942E0ED
:100C40002078400770D5306C4FF00008C0000CD4FD
:100C5000CDF804804FF00108306C40F080503064D3
:100C6000306C00F0805001900198634F3868C005E7
:100C70000FD4386840F480703860FFF7D9FD05461E
:100C80003868C00505D4FFF7D3FD401B0228F7D90B
:100C900019E0A768012F05D0306F052F25D140F04E
:100CA00004003067306F40F001003067FFF7C0FD8F
:100CB000054641F28837306F80072ED4FFF7B8FD24
:100CC000401BB842F7D9032037E000210160FFF74D
:100CD000AFFD0546306880077FF58DAFFFF7A8FDB3
:100CE000411B03200229F5D927E020F001003067DD
:100CF000306F20F004003067FFF79AFD0546002FA3
:100D0000D7D141F28837306F800706D5FFF790FDC5
:100D1000411B0320B942F6D90FE0B8F1000F1EBF06
:100D2000306C20F080503064A769002F5DD0B0682F
:100D300000F00C00082803D1012002B0BDE8F081CA
:100D40002C49002088460866FFF772FD0546022FF1
:100D500009D13068800128D5FFF76AFD411B0320C7
:100D60000229F6D9E9E7306880013ED5FFF760FD3A
:100D7000411B03200329F6D3DFE720F480303060E5
:100D8000306820F480203060FFF752FD0546002FC8
:100D90007FF4F2AE306880037FF5FEAEFFF748FDCA
:100DA000411B03206429F5D9C7E704F11C078FCF45
:100DB0000843D90340EA82104FF6FF72914340EA9C
:100DC0000760A1F58031084370600120C8F8600019
:100DD000FFF72EFD04463068800106D4FFF728FD9A
:100DE000011B03200229F6D9A7E70020A5E700BFD1
:100DF000003802400000474200700040A0B110B52A
:100E00000446407920B900202071204600F00EF8F9
:100E1000022060712068016841F004010160012036
:100E200060710020A06010BD012070470068E54996
:100E3000884218BF704781B00020009005480168C3
:100E400041F040010160006800F04000009000980F
:100E500001B0704734380240411E0020B0EB116FE2
:100E60001CBF01207047044AF023516003490B70F6
:100E7000072190601160704710E000E023ED00E072
:100E8000704750B310B5044690F8390028B90020D7
:100E900084F83800204600F023F8242084F8390034
:100EA0002068C16821F40051C160204600F006FCB2
:100EB0002068016921F490410161416921F02A0112
:100EC0004161C16841F40051C16000202021E0630C
:100ED00084F8391084F83A1010BD012070470000E2
:100EE0002DE9F04F87B0044602A81421FFF7A0F9BE
:100EF0002068C24FB8425DD14FF00008A5484FF0BE
:100F000008094FF0030A4FF0010B022602ADCDF89D
:100F10000480016941F480110161016901F48011CB
:100F200001910199CDF80480016841F0040101604C
:100F3000016801F0040101910199CDF80480016874
:100F400041F0080101602946006800F008000190A6
:100F50000198CDF81890CDF814A0CDF810B00396F4
:100F60004FF48050029007F5DC30FFF78FFB042030
:100F7000CDE905A9CDE9036B2946029007F5DE30DE
:100F8000FFF784FB0D4D0E4A4FF000614FF4806077
:100F9000C5E90021C5E90288286105F11400142182
:100FA000FFF746F92846FFF775FA08B1FFF7B8F9D9
:100FB0006563AC6307B0BDE8F08F00BF200400207C
:100FC00010600240BCB5054690F83A00202807D1D1
:100FD00013460A4631B12BB195F83800012803D1E8
:100FE00002242DE001242BE0002401201649DFF823
:100FF0005CC0EC63AB85AA6285F83800222085F8D6
:101000003A00686BC0E913141149C0E90F1C296844
:101010000431FFF7D3FA019428680168019141680F
:101020000191019985F83840C16841F48071C1602F
:10103000416941F001014161416941F04001416173
:10104000204602B0B0BD00BF111600089B16000874
:101050006516000801686948814218BF704780B56D
:1010600000F5DA304FF40051FFF7D6FB6248034930
:101070000522BDE88040FFF7A5BF00BF190400208E
:101080007047FEE7E0B5002000220190414801686A
:1010900041F4001101600021006800F4001001908B
:1010A00001980B20FFF736FC0B20BDE88C40FFF7C2
:1010B00023BC00BF2DE9F04186B000263548364CF0
:1010C00001224FF0010805960096016841F00401E5
:1010D0000160016801F00401009100990096016827
:1010E00041F080010160016801F0800100910099E8
:1010F0000096016841F002010160016801F00201FF
:10110000009100990096016841F0010101600168B9
:1011100001F00101009100990096016841F0080179
:1011200001604FF48051006800F0080000900098C2
:101130002046FFF778FB204642F2F8010022FFF735
:1011400072FB01AD4FF44050144F0496CDE9028676
:10115000019020462946B847114803962946029037
:101160004FF4804001902046B84703202946049060
:10117000F820CDE9028801902046B84728200221B6
:101180000022FFF7C7FB2820FFF7B6FB06B0BDE83B
:10119000F08100BF30380240000402408D06000894
:1011A0000000111080B5064806490160FFF726FED1
:1011B000002814BFBDE8804080BDFFF7B1B800BF74
:1011C000800400200008065010B50B480B4C4FF46B
:1011D000165300210C22C0E90043C0E90211C0E906
:1011E0000412C0E90611FFF74CFE002814BFBDE849
:1011F000104010BDFFF794B890040020005000404C
:10120000FEE770475A4900200022082A08BF00F074
:101210008FB8002302E001F833000133802BFAD1AC
:1012200001310132F1E700BF43B2002B1CDB3F2943
:101230001AD810B54E4B4FF0070C002A03EBC00E26
:10124000ACEBD1032CEA010C4FF00101DCB201FA46
:101250000CF11EF8040040EA010308BF20EA010374
:101260000EF80430BDE81040704700BFB0B52F4CF9
:1012700001250020256065602561E560E561A561C7
:1012800060616420FFF7D0F965613A4CAE2000211F
:10129000A047D5200021A04750200021A047A8202A
:1012A0000021A0473F200021A047D3200021A047D4
:1012B00000200021A04740200021A0478D200021D0
:1012C000A04714200021A04720200021A047022091
:1012D0000021A047A1200021A047C0200021A04755
:1012E000DA200021A04712200021A0478120002100
:1012F000A047EF200021A047D9200021A047F120DE
:101300000021A047DB200021A04730200021A0477A
:10131000A4200021A047A6200021A047AF20002143
:10132000A047BDE8B040FFF76DBF00BF80824042DC
:10133000F8B50F4D0F4E0024082C08BFF8BDA4F1DE
:10134000500000210027C0B2B04700200021B04764
:1013500010200021B04705E015F83700012100F00A
:101360009FF80137802FF7D101350134E4E700BF42
:1013700018000020A11400082DE9F04F85B08A461E
:10138000590706464FF001001C464FF0000B4FEA8C
:10139000D301554618BF00EBD301580848432649EE
:1013A000C0B20490A2F12000C2B20E980392B0FA2B
:1013B00080F0470902EBC20001EB800002901F4859
:1013C00000EB0210019031E0182C0AD0102C0AD04A
:1013D0000C2C2ED103981A4900EB400001EB800041
:1013E00002E0029800E0019858444FF0000890F89D
:1013F000009003E008F101084FEA4909B8F1070F2E
:1014000012D84FFA89F0E9B2B0F1FF3FF0B2CCBF89
:101410003A460E9AFFF708FF0135E8B2A0EB0A0042
:10142000A042E7D1013655460BF1010B04988345E4
:10143000CAD305B0BDE8F08FBA230008CA1D000862
:10144000561900082DE9F84F074680201C4615461E
:101450000E46C3F140094FEA530A4FF0010BA0EBCF
:1014600053082A78A2F12000C0B25E2888BFBDE8E8
:10147000F88FF8B280453CBF00272644F0B2814582
:1014800004DAFFF7BFFE2A7800260027F8B2F1B28F
:101490002346CDF800B0FFF76FFF57440135E0E772
:1014A00080B50C4A4FF0000C4FF0010ED1600021C6
:1014B000C2F810C008E0C3B2C2F800C00131400059
:1014C000DB095360C2F800E00729F4D9012010615C
:1014D000D06080BD8C8240427047704707480168E9
:1014E000002902DB0139016070474FF47A71016015
:1014F00003484FF48051FFF78FB900BF1000002060
:101500000004024080B5FFF7E9FFFFF795F9BDE859
:10151000804000F06DB80000B0B592B000241F48C4
:101520000225CDE90A44CDE908440194016841F05F
:1015300080510160006800F0805001900198019492
:101540001748016841F480410160006800F4804060
:101550000190019807201190A82010950F90042069
:101560000E904FF48000CDE90C504FF4803007907E
:101570000120069006A8FFF7D5FA4FF48050052108
:1015800005904FF4A05004900F20CDE90254019033
:1015900001A8FFF7EDF912B0B0BD00BF403802401E
:1015A0000070004010B50E480F4CD0F8801041F488
:1015B0007001C0F880100B490A6842F001020A600D
:1015C00000228A600B6823400B60084B4B600B685D
:1015D00023F480230B60CA604FF00061016010BDEE
:1015E00008ED00E000380240FFFFF6FE1030002456
:1015F000064801684A1E0029026000DD7047A849BC
:1016000001220A700A210160704700BF0C0000200F
:1016100010B5846B2068416994F83920212A0BD1D8
:1016200011F0800108D00021E184C16821F0C001DF
:10163000C160202184F83910406994F83A102229B9
:1016400007D110F0400004D00020E085204600F0D3
:1016500027F8E06B40F01000E0632046BDE8104042
:10166000FFF70EBC0168806B0968C90548BFFFF72A
:10167000F1BC0021C1850168CA6822F48072CA6089
:101680004A6922F001024A614A6922F040024A6135
:10169000202180F83A10FFF7DDBC806BFFF7F0BC2B
:1016A0000168CA6822F49072CA604A6922F0010295
:1016B0004A61202180F83A10704700002DE9F04778
:1016C0000446006849F20C650169E26821F4405162
:1016D00011430161A168D4E90423E769C668114395
:1016E000AE43B7F5004F41EA030141EA070141EA81
:1016F0000601C1604169A26921F4407141EA020119
:1017000041614A4940F480603FD188420CBFDFF814
:1017100020A1DFF820A1D047D4F804908046D0471C
:1017200067680646D047616819257F00684306FB55
:1017300005F34900B3FBF7F3B0FBF1F06421B0FB14
:10174000F1F202FB1102181A4FEA49031044322247
:1017500002EBC0004FF4F872B0FBF1F002EA400077
:1017600008FB05F2B2FBF3F2B2FBF1F100EB01165C
:10177000D047616868434900B0FBF1F7D047616822
:1017800068430722032349003CE0884214BFDFF886
:10179000A4A0DFF89CA0D047D4F804908046D0479E
:1017A00067680646D04761681925BF00684306FB95
:1017B00005F38900B3FBF7F3B0FBF1F06421B0FB54
:1017C000F1F202FB1102181A4FEA89031044322287
:1017D00002EB001008FB05F2B0FBF1F0B2FBF3F2F4
:1017E00000F0F000B2FBF1F100EB0116D0476168A8
:1017F00068438900B0FBF1F7D047616868430F2266
:1018000004238900B0FBF1F0391A6427B0FBF7F527
:1018100005FB17000844216898403230B0FBF7F010
:10182000104030438860BDE8F08700BF00140140DD
:10183000A50A0008910A0008FEE700002DE9FC4116
:10184000174C2078012818BFBDE8FC812F4F154E9A
:101850000125002000210C234FF0000800953A7864
:10186000B0477A780E2000210C230095B047BA7853
:101870001C2000210C230095B047FA782A20002173
:101880000C230095B0473A79382000210C230095AD
:10189000B047FFF74DFD84F80080BDE8FC8100BF34
:1018A000180400207913000810B5074C00F00F034E
:1018B000044AB0F1FF3F2344C8BF831808011870E1
:1018C00010BD00BF00E400E014ED00E0FEF7BEFF35
:1018D000FFF722FEFFF7EEFBFFF7D4FBFFF774FCE8
:1018E000FFF760FCFFF7C2FC074808490522FFF735
:1018F00069FB07A2002000211823FFF7A3FDFFF7D3
:1019000017FDFFF79BFFFCE790040020190400205F
:101910002020E78AB6E68081E698BEE7A4BA2000D8
:1019200002E008C8121F08C1002AFAD170477047A8
:10193000002001E001C1121F002AFBD17047000006
:10194000000000000000010203040607080900006F
:10195000000001020304000000000000000000007D
:101960000000000000003F400000000000000000F8
:101970003000400030004000000009000BC03D0076
:101980000BC03D00090018C024407FE02240318098
:101990000000180024C01B000D803240018003802D
:1019A0001C4027401C8007400040100060000000E1
:1019B0000000000000000000000000001F80204028
:1019C00040200000402020401F800000000009004F
:1019D00006001F80060009000000040004003F808C
:1019E000040004000000001000600000000000007F
:1019F00000000400040004000400040000000000D3
:101A000000400000000000000000002001C00600AF
:101A10003800400000001F802040204020401F80F0
:101A20000000000010403FC000400000000018C04F
:101A300021402240244018400000108020402440D3
:101A400024401B80000002000D0011003FC0014037
:101A500000003C80244024402440238000001F805C
:101A6000244024403440038000003000200027C080
:101A70003800200000001B802440244024401B80AC
:101A800000001C0022C0224022401F8000000000F5
:101A9000000008400000000000000000000004609A
:101AA000000000000000000004000A001100208077
:101AB0004040090009000900090009000000000079
:101AC0004040208011000A0004001800200023403C
:101AD0002400180000001F802040274029401F409C
:101AE0000000004007C039000F0001C00040204046
:101AF0003FC0244024401B8000001F802040204025
:101B000020403080000020403FC0204020401F8007
:101B1000000020403FC024402E4030C00000204044
:101B20003FC024402E00300000000F0010802040F5
:101B300022403380020020403FC0040004003FC028
:101B40002040204020403FC0204020400000006056
:101B5000202020203FC02000200020403FC0244003
:101B60000B0030C0204020403FC0204000400040DB
:101B700000C03FC03C0003C03C003FC0000020400C
:101B80003FC00C4023003FC020001F802040204069
:101B900020401F80000020403FC024402400180047
:101BA00000001F802140214020E01FA000002040B5
:101BB0003FC02440260019C0004018C024402440E3
:101BC000224031800000300020403FC020403000E3
:101BD000000020003F80004000403F8020002000A7
:101BE0003E0001C0070038002000380007C03C005C
:101BF00007C038000000204039C0060039C020402E
:101C000000002000384007C038402000000030406D
:101C100021C02640384020C00000000000007FE0C6
:101C2000402040200000000070000C0003800040B5
:101C300000000000402040207FE000000000000085
:101C400020004000200000000000001000100010E4
:101C50000010001000100000000040000000000014
:101C60000000000002800540054003C00040200045
:101C70003FC0044004400380000000000380044093
:101C800004400640000000000380044024403FC0A0
:101C900000400000038005400540034000000000B4
:101CA00004401FC0244024402000000002E00550F2
:101CB00005500650042020403FC00440040003C0EB
:101CC00000400000044027C0004000000000001059
:101CD0000010041027E00000000020403FC0014039
:101CE000070004C00440204020403FC000400040A6
:101CF000000007C0040007C0040003C00000044047
:101D000007C00440040003C00040000003800440FA
:101D1000044003800000041007F0045004400380D6
:101D20000000000003800440045007F0001004404D
:101D300007C0024004000400000000000640054007
:101D4000054004C00000000004001F800440004063
:101D50000000040007800040044007C00040040069
:101D6000070004C0018006000400060001C007004F
:101D700001C006000000044006C0010006C0044087
:101D800000000410071004E00180060004000000B9
:101D9000044005C0064004400000000000000400AC
:101DA0007BE040200000000000000000FFF0000089
:101DB0000000000040207BE0040000000000400024
:101DC00080004000200020004000000000000000D3
:101DD0000000000000000000000000000000000003
:101DE0001FCC000C000000000000000008003000C4
:101DF00060000800300060000000022003FC1E208C
:101E0000022003FC1E200220000000000E18110416
:101E10003FFF10840C78000000000F0010840F3882
:101E200000C0077818840078000000780F8410C480
:101E300011240E9800E40084000808006800700077
:101E40000000000000000000000000000000000092
:101E500007E018182004400200000000400220049F
:101E6000181807E000000000000002400240018056
:101E70000FF00180024002400000008000800080DE
:101E80000FF800800080008000000001000D000EAF
:101E90000000000000000000000000000080008042
:101EA000008000800080008000800000000C000C9A
:101EB0000000000000000000000000000006001804
:101EC00000600180060018002000000007F00808EC
:101ED00010041004080807F00000000008040804BB
:101EE0001FFC000400040000000000000E0C101491
:101EF0001024104411840E0C000000000C18100473
:101F00001104110412880C700000000000E003208E
:101F1000042408241FFC0024000000001F981084E3
:101F200011041104108810700000000007F00888E8
:101F30001104110418880070000000001C0010003B
:101F400010FC13001C001000000000000E381144AB
:101F50001084108411440E38000000000700088C23
:101F600010441044088807F0000000000000000042
:101F7000030C030C00000000000000000000000142
:101F80000106000000000000000000000080014089
:101F90000220041008081004000002200220022081
:101FA0000220022002200220000000001004080885
:101FB0000410022001400080000000000E0012000A
:101FC000100C106C10800F00000003E00C1813E4DC
:101FD000142417C4082807D000000004003C03C4E0
:101FE0001C40074000E4001C000410041FFC110406
:101FF000110411040E880070000003E00C18100496
:102000001004100410081C10000010041FFC100421
:1020100010041004080807F0000010041FFC11044D
:10202000110417C410040818000010041FFC110448
:10203000110017C010000800000003E00C18100485
:10204000100410441C780040000010041FFC108491
:102050000080008010841FFC100400001004100495
:102060001FFC100410040000000000030001100118
:1020700010011FFE10001000000010041FFC1104CE
:1020800003801464181C1004000010041FFC1004CA
:10209000000400040004000C000010041FFC1F00DA
:1020A00000FC1F001FFC1004000010041FFC0C04A7
:1020B000030000E010181FFC100007F008081004CF
:1020C00010041004080807F0000010041FFC10841E
:1020D0001080108010800F00000007F008181024F6
:1020E0001024101C080A07F2000010041FFC110441
:1020F000110011C011300E0C000400000E1C110460
:102100001084108410441C380000180010001004C3
:102110001FFC100410001800000010001FF810042D
:102120000004000410041FF8100010001E0011E04D
:10213000001C007013801C0010001FC0103C00E049
:102140001F0000E0103C1FC000001004180C1634E3
:1021500001C001C01634180C100410001C00130438
:1021600000FC13041C00100000000804101C106484
:10217000108413041C04101800000000000000006C
:102180007FFE4002400240020000000030000C00D0
:1021900003800060001C00030000000040024002B9
:1021A00040027FFE00000000000000000000200050
:1021B000400040004000200000000001000100013C
:1021C000000100010001000100010000400040008A
:1021D0002000000000000000000000000098012422
:1021E00001440144014400FC000410001FFC00886D
:1021F00001040104008800700000000000700088E5
:10220000010401040104008800000000007000883F
:102210000104010411081FFC0004000000F801443F
:1022200001440144014400C800000000010401040D
:102230000FFC1104110411001800000000D6012940
:102240000129012901C90106000010041FFC0084B6
:1022500001000100010400FC000400000104190455
:1022600019FC00040004000000000000000300014D
:102270000101190119FE0000000010041FFC0024D8
:10228000004001B4010C010400000000100410041F
:102290001FFC0004000400000000010401FC010414
:1022A000010001FC0104010000FC010401FC0084A8
:1022B00001000100010400FC0004000000F801041A
:1022C00001040104010400F80000010101FF008580
:1022D0000104010400880070000000000070008804
:1022E00001040104010501FF00010104010401FCD6
:1022F00000840104010001800000000000CC0124E2
:1023000001240124012401980000000001000100C3
:1023100007F80104010400000000010001F80004B6
:1023200000040004010801FC0004010001800170A8
:10233000000C001001600180010001F0010C003070
:1023400001C00030010C01F0010000000104018C0B
:1023500000740170018C0104000001010181017110
:10236000000E001801600180010000000184010CD2
:10237000013401440184010C000000000000000051
:10238000000001003EFC400240020000000000008E
:102390000000FFFF000000000000000040024002BB
:1023A0003EFC010000000000000000006000800012
:1023B00080004000400020002000000000000000DD
:1023C000000000000000000000000000000000000D
:1023D00000000000000000000000000000000000FD
:1023E000000000000000000000000000000F803826
:1023F0000FFE380F803800000000000000000000D1
:1024000000000000000000000100000600000C00B9
:10241000003800003100000600000C000038000009
:102420003000000000000000000061800067F80735
:10243000F980006180006180006180006180006738
:10244000F807F98000618000000000000000000033
:1024500001C0E003E0F00630080418081FFFFE0486
:102460000E080787F00381E000000000000001F083
:1024700000060C00040408060C7001F9C0000E00F0
:10248000003BE000EC18070808040C180003E0000B
:1024900000000001E00007F003F818041C0804170E
:1024A0000807E1D003C0E00023B0003C080020088A
:1024B00000001000000000000001000031000032A8
:1024C00000001C00000000000000000000000000F0
:1024D00000000000000000000000000000000000FC
:1024E000000000000000000000007F0001FFC007A6
:1024F00080F00C0018100004200002000000000012
:10250000002000021000040C00180780F001FFC03A
:10251000007F00000000000000000000000000003C
:102520000000000000004200006600006600003C61
:102530000000180003FFC0001800003C0000660007
:1025400000660000420000000000080000080000D3
:10255000080000080000080001FFC0000800000893
:102560000000080000080000080000000000000152
:1025700000003100003200001C00000000000000DC
:10258000000000000000000000000000000000004B
:102590000000080000080000080000080000080013
:1025A0000008000008000008000008000008000003
:1025B00000000000000000000000380000380000AB
:1025C00038000000000000000000000000000000D3
:1025D00000000000000000000000000600001C00D9
:1025E0000070000180000E0000380000C0000700ED
:1025F000001C0000300000000000000000007F8090
:1026000001FFE003807006001804000804000806BB
:10261000001803807001FFE0007F800000000000D0
:102620000000000001000801000801000803FFF895
:1026300007FFF80000080000080000080000000084
:10264000000000000001C03802C0580400980401D6
:1026500018040218040418061C1803F81801E0F8FE
:1026600000000000000000000001C0E003C0F00412
:10267000000804080804080806180803F41801E70D
:10268000F00001E000000000000000000000030076
:10269000000D00001100006100008108030108071F
:1026A000FFF80FFFF800010800010800000000001B
:1026B000000000E007FCD006080806100806100815
:1026C000061008061838060FF00607C000000000C4
:1026D0000000000000003F8001FFE003843002089A
:1026E00018041008041008041008071810030FF04D
:1026F0000007C000000000000000000003C0000749
:1027000000000600000600F80607F806180006E0BC
:102710000007000006000000000000000001E1E0EA
:1027200003F7F0063410041808041808040C080411
:102730000C0806161803F3F001C1E00000000000C9
:102740000000F80003FC3003063804020804020805
:102750000402080404100308F001FFC0007F000019
:102760000000000000000000000000000000000069
:102770000000703800703800703800000000000061
:102780000000000000000000000000000000000049
:10279000000000000000301A00301C0000000000A3
:1027A0000000000000000000000000000000000029
:1027B0000008000014000022000041000080800199
:1027C0000040020020040010080008000000000083
:1027D0000000210000210000210000210000210054
:1027E0000021000021000021000021000021000044
:1027F00000000000000000000800080400100200B3
:1028000020010040008080004100002200001400F0
:1028100000080000000000000003C00004C0000425
:102820000000080038080F380808380810000C307D
:102830000007E00003C000000000000000003F802F
:1028400000FFE0038070020F1006708804C0880447
:102850008308047F8802C09003012000FE4000002E
:10286000080000180001F8003E0801C2000702003D
:1028700007E20000FE00001FC80001F80000380059
:10288000000804000807FFF807FFF8040808040818
:102890000804080804080806180803F41801E7F0FB
:1028A0000001E0000000000000003F8001FFE003A5
:1028B00080700200180400080400080400080400E6
:1028C000100600200780C000000004000807FFF881
:1028D00007FFF804000804000804000804001802B8
:1028E000001003807001FFE0007F80000000040002
:1028F0000807FFF807FFF804080804080804080898
:10290000040808043E0804000806001801006000DE
:10291000000004000807FFF807FFF804080804088F
:1029200000040800040800043E0006000006000041
:10293000018000000000000000003F8001FFE00374
:10294000807006001804000804020804020802034C
:10295000F00783F000020000020004000807FFF8FF
:1029600007FFF8040808000800000800000800003D
:10297000080004080807FFF807FFF8040008000033
:102980000000000004000804000804000807FFF825
:1029900007FFF80400080400080400080000000015
:1029A0000000000000000006000007000001040015
:1029B0000104000104000307FFFE07FFFC04000000
:1029C00004000004000004000807FFF807FFF804F3
:1029D0000C08001800003E0004C7800503C806006C
:1029E000F804003804001800000804000807FFF885
:1029F00007FFF804000800000800000800000800B5
:102A0000000800000800001800006000000004003A
:102A10000807FFF807800807FC00007FC00003F8E4
:102A20000007C000780007800807FFF807FFF804D8
:102A3000000804000807FFF807000803C00000E0D2
:102A400000003800001E000007000001C00400F074
:102A500007FFF8040000000000007F8001FFE00392
:102A6000807006001804000804000806001803001F
:102A70003001FFE0007F8000000004000807FFF83D
:102A800007FFF8040408040400040400040400041C
:102A90000400060C0003F80001F000000000000034
:102AA00000007F8001FFE00380700600880400883A
:102AB0000400C806003C03003E01FFE6007F8400DE
:102AC000000004000807FFF807FFF80408080408DE
:102AD00000040C00040F00040BC00610F003F038D3
:102AE00001E00800000800000001E0F803F03006F3
:102AF0003010041808041808040C08040C08020616
:102B0000180207F00781E0000000018000060000C5
:102B100004000004000004000807FFF807FFF804A1
:102B2000000804000004000006000001800004000A
:102B30000007FFE007FFF00400180000080000088D
:102B400000000800000800000804001007FFE0046F
:102B5000000004000006000007E00007FE00041F5C
:102B6000E00001F80000380001E0043E0007C0006A
:102B700006000004000004000007E00007FFC00496
:102B80001FF80007C007F80007FF80043FF80007A0
:102B9000C004F80007000004000000000004000862
:102BA00006001807C07805F1C8003E00001F800429
:102BB00063E80780F806001804000800000004001D
:102BC0000006000007800007E008047C08001FF8EA
:102BD0000007F800180804E00807000006000004D9
:102BE00000000000000100080600380400F804039B
:102BF000E8040F08047C0805F00807C0080700185F
:102C00000400600000000000000000000000000060
:102C100000000000003FFFFE200002200002200014
:102C2000022000022000020000000000000000005E
:102C300008000007000000C0000038000006000087
:102C400001C000003000000E000001000000000084
:102C500000000000200002200002200002200002EC
:102C60002000023FFFFE0000000000000000000006
:102C7000000000000000000000000008000010003C
:102C800000300000200000300000100000080000AC
:102C90000000000000000000010000010000010031
:102CA000000100000100000100000100000100001F
:102CB0000100000100000100000100000000000010
:102CC00000000020000020000010000010000000A4
:102CD00000000000000000000000000000000000F4
:102CE000000000F00019F8001B1800220800260858
:102CF000002408002410003FF8001FF8000008001E
:102D0000001800000004000007FFF80FFFF0001893
:102D100018001008002008002008003018001FF0DC
:102D2000000FC00000000000000007C0001FF000FE
:102D30001830002008002008002008003C08001C73
:102D4000100000600000000000000000000007C04C
:102D5000001FF00038180020080020080020080498
:102D6000101007FFF80FFFF0000010000000000037
:102D7000000000000007C0001FF000123000221801
:102D8000002208002208003208001E10000E200059
:102D9000000000000000200000200800200801FFC3
:102DA000F803FFF806200804200804200807200084
:102DB00003000000000000000000000E000E6E0086
:102DC0001FF30031B10020B10020B1003191001F8C
:102DD00013002E1E00200E0030000000000400082A
:102DE00007FFF80FFFF80010080020000020000087
:102DF0002008003FF8001FF8000008000000000055
:102E000000000000002008002008002008063FF80D
:102E1000063FF8000008000008000008000000005D
:102E2000000000000000000000000300000300207C
:102E300001002001002003063FFE063FFC000000C9
:102E400000000000000000000004000807FFF80F69
:102E5000FFF8000188000300002FC00038F80020B0
:102E600038002008000008000000000000000000FA
:102E700004000804000804000807FFF80FFFF8002A
:102E8000000800000800000800000000000000200A
:102E900008003FF8003FF8001008002000003FF84D
:102EA000003FF8001008002000003FF8003FF80045
:102EB0000008000000002008003FF8003FF8001064
:102EC00008001000002000002008003FF8001FF854
:102ED0000000080000000000000007C0000FF00024
:102EE00018300030080020080020080030080018C2
:102EF00030000FF00007C0000000000000002001BB
:102F0000003FFF003FFF00101100200900200800D3
:102F10002008003038001FF0000FC0000000000043
:102F2000000007C0001FF00038180020080020082B
:102F3000002009001011001FFF003FFF00000100EA
:102F40000000002008002008002008003FF8003F93
:102F5000F8000808001008002008002000003000D9
:102F6000003000000000000000000000000C7800AD
:102F70001E180033080023080021080021880021C2
:102F8000980030F0003860000000000000002000D1
:102F900000200000200000FFF003FFF800200800E0
:102FA00020080020080000300000000000000000A1
:102FB00000002000003FF0007FF80000180000082B
:102FC000000008002010003FF8007FF00000100013
:102FD0000000000000002000003000003C00003F26
:102FE000800023F0000078000070002380003C0087
:102FF000003000002000002000003C00003FE00006
:1030000023F80000E0002700003E00003FE0002120
:10301000F80001E0003E0000200000000000200851
:10302000002008003838003E680027800003C800F0
:103030002CF800383800201800200800000000009C
:1030400000002000003003003C01003F830023EC1F
:10305000000070002380003C0000200000200000E1
:1030600000000000000000000038080020380020A8
:10307000F80023E8002F88003E08003808002018D8
:1030800000007000000000000000000000000000D0
:1030900000000000000008000014001FF7FC3000D2
:1030A00006200002000000000000000000000000F8
:1030B000000000000000000000000000FFFFFF0013
:1030C0000000000000000000000000000000000000
:1030D000000000002000023000061FF7FC00140072
:1030E00000080000000000000000000000000000D8
:1030F00000000000001800006000004000004000D8
:10310000002000001000000800000400000400007F
:103110000C00001000000000383100080000002002
:103120001800000020190008503100081800002085
:10313000C008000030190008010000001000000065
:103140000024F4000A000000E80300000000000072
:040000050800018965
:00000001FF
