:020000040800F2
:10000000180800209D0100083F0B00085D0A000849
:100010003D0B000885020008850F00080000000065
:10002000000000000000000000000000AB0E00080F
:100030008702000800000000A90E0008AD0E0008AD
:10004000B7010008B7010008B7010008B7010008B0
:10005000B7010008B7010008B7010008B7010008A0
:10006000B7010008B7010008B7010008B701000890
:10007000B7010008B7010008B7010008B701000880
:10008000B7010008B7010008B7010008B701000870
:10009000B7010008B7010008B7010008B701000860
:1000A000B7010008B7010008B7010008B701000850
:1000B000B7010008B7010008B7010008B701000840
:1000C000B7010008B7010008B7010008B701000830
:1000D000B7010008B7010008B7010008B701000820
:1000E00089020008B7010008B7010008B70100083D
:1000F000B7010008B7010008B7010008B701000800
:10010000B7010008B7010008B7010008B7010008EF
:10011000B7010008B7010008B7010008B7010008DF
:10012000B7010008B7010008B7010008B7010008CF
:10013000B7010008B7010008B7010008B7010008BF
:10014000B7010008B7010008B7010008B7010008AF
:10015000B7010008B7010008B7010008B70100089F
:10016000B7010008B7010008B7010008B70100088F
:10017000B7010008B7010008B7010008000000003F
:10018000B7010008B7010008DFF80CD000F068F8EC
:1001900000480047AD0F00081808002006488047B7
:1001A00006480047FEE7FEE7FEE7FEE7FEE7FEE75C
:1001B000FEE7FEE7FEE7FEE7390F000889010008C9
:1001C0002DE9F05F0546002092469B46884606468C
:1001D000814640241BE0284641464746224600F01F
:1001E0002FF853465A46C01A914110D3114618466B
:1001F000224600F016F82D1A67EB01084F462246FA
:100200000120002100F00DF817EB00094E41201EDF
:10021000A4F10104DFDC484631462A464346BDE8E6
:10022000F09F202A04DB203A00FA02F100207047F8
:100230009140C2F1200320FA03F319439040704724
:10024000202A04DB203A21FA02F00021704721FA2B
:1002500002F3D040C2F12002914008431946704792
:10026000064C074D06E0E06840F0010394E8070003
:1002700098471034AC42F6D3FFF78AFF782800087D
:1002800098280008FEE770474FF4804000F028B837
:10029000B0B5044600F000F90546A148611C00789D
:1002A00018BF044400F0F8F8401BA042FAD3B0BDD8
:1002B000B0F5804F18BF704710B5084C4FF480510F
:1002C000204600F0DDF820464FF4005100F0D8F849
:1002D000C820BDE81040FFF7DBBF00BF00040240AC
:1002E00003490A68024214BF08607047FFF7E0BF85
:1002F000143C01402DE9F84F5B4A4FF0080A4FF0DB
:10030000010B4FF000084FF0000E9042574A08BF13
:100310004FF0070A02444FEAB223072B38BF4FEAD7
:10032000B22A0022102A08BFBDE8F88F0B680BFA2A
:1003300002F6334200F091804B6843F01004122C17
:1003400013D16FF003040EF01C030F2704EA5205CB
:1003500007FA03FC05442C6A24EA0C0C0C6904FA25
:1003600003F343EA0C032B624B68032703F00305F6
:10037000122B07FA08F4076805FA08F56FEA040C6F
:1003800027EA040747EA0507076013D80BFA03F4C6
:1003900014F0061F0ED08468CD6804EA0C0405FA38
:1003A00008F52C438460C3F3001445689440B543BA
:1003B0002C434460C4688D68DB0004EA0C0705FA2E
:1003C00008F547EA0507C76047D50023284C0EF01B
:1003D0000C050093284BA4461F461B6843F480433A
:1003E0003B603B6803F48043009322F00303234403
:1003F000224C009FA1461F590F24AC400AFA05F574
:10040000A7432F4343F80970DCF800304D6843EAF6
:100410000607EC0358BF23EA0607CCF80070AC03CC
:10042000DCF8043043EA060758BF23EA0607CCF895
:100430000470EC02DCF8083043EA060758BF23EAF0
:1004400006070C4BCCF80870AD021C461B6843EA4B
:10045000060758BF23EA0607276008F102080EF1D5
:10046000040E01325EE700BF001C02400000FEBF28
:10047000003C01400C3C01404438024008FCFFFFB6
:1004800042690A408A4208BF090481617047002A14
:1004900008BF09048161704705480068704700BFC4
:1004A0001F48034900780A6810440860704700BF7D
:1004B0001004002080B50B48016841F40071016010
:1004C000016841F480610160016841F4807101605C
:1004D000032000F071F8002000F006F800F022F888
:1004E000002080BD003C024070B50D4E04464FF424
:1004F0007A713078B1FBF0F07F490968B1FBF0F018
:1005000000F098FA01250F2C08D838B94FF0FF30C9
:1005100021460022002500F031F87460284670BDA5
:100520000000002082B000200C4901904A6842F48B
:1005300080424A604A6802F480420192019A009027
:10054000086840F080500860086800F08050009013
:100550000098052002B000F02FB800BF40380240DC
:10056000002808DB00F01F010122400902FA01F116
:10057000014A42F82010704700E100E080B5144BBA
:100580001B68C3F3022CBCF1030E8CF007034FF081
:10059000FF3C38BF4FF0000E042B28BF04230CFA99
:1005A00003F399430CFA0EF301FA0EF19A43114347
:1005B000BDE8804000F0E8BC05494FF6FF030A683B
:1005C0001A4060F30A22034810430860704700BFD6
:1005D0000CED00E00000FA052DE9F041002800F0E4
:1005E0008380434B04468846D3F8000400F00F0094
:1005F000884207D283F80084D3F8000400F00F008B
:10060000404571D12068810711D5410742BF9968E3
:1006100041F4E0519960010742BF996841F460419B
:1006200099609968A26821F0F00111439960C007B0
:100630002AD06068811E022903D21968890109D471
:1006400052E0012803D11968890303D44CE01968EA
:10065000890749D599681D4621F003010843986030
:10066000FFF71AFF064641F28837A86861682B46F3
:1006700000F00C00B0EB810F06D0FFF70DFF801BE0
:10068000B842F2D9032430E0D3F8000400F00F00A0
:10069000404507D983F80084D3F8000400F00F0028
:1006A000404521D12068410705D59968E26821F4C9
:1006B000E05111439960000706D59868216920F43C
:1006C000604040EAC10098601C4600F017F8A1683D
:1006D000084A0024C1F30311515CC8400649086070
:1006E0000020FFF701FF00E001242046BDE8F08173
:1006F00000380240A61000080800002010B5144C75
:10070000606800F00C011348082904D0042904BFD4
:10071000114810BD10BD2168236801F03F02216817
:100720005B02C1F3881105D4A1FB00010023FFF790
:1007300047FD03E008484843B0FBF2F0216802227D
:10074000C1F3014102EB4101B0FBF1F010BD00BF6C
:10075000043802400024F40000127A002DE9FC4124
:10076000002800F0058104460078AF4EC0072FD066
:10077000B06800F00C00042823D0B06800F00C0032
:10078000082802D1706840021BD46768B7F5803F23
:1007900007D03068B7F5A02F40F00B8140F48020DF
:1007A0003060306840F480303060FFF775FE0546F9
:1007B000306880030CD4FFF76FFE401B6428F7D924
:1007C0009DE03068800303D56068002800F0D08089
:1007D000207880072BD5B06810F00C0F07D0B068D8
:1007E00000F00C00082809D17068400206D4306877
:1007F000800715D5E068012812D0B9E0E1688B4880
:1008000000297ED001210160FFF746FE05463068D1
:10081000800705D4FFF740FE401B0228F7D96EE0A1
:100820003068216920F0F80040EAC100306020788B
:10083000000721D5606978B17C480121C0F8801E8D
:10084000FFF72AFE0546706F800715D4FFF724FED8
:10085000401B0228F7D952E074480021C0F8801EDE
:10086000FFF71AFE0546706F800705D5FFF714FEE7
:10087000401B0228F7D942E02078400770D5306C41
:100880004FF00008C0000CD4CDF804804FF00108F0
:10089000306C40F080503064306C00F0805001903B
:1008A0000198634F3868C0050FD4386840F48070F1
:1008B0003860FFF7F1FD05463868C00505D4FFF73D
:1008C000EBFD401B0228F7D919E0A768012F05D0DE
:1008D000306F052F25D140F004003067306F40F0B5
:1008E00001003067FFF7D8FD054641F28837306FC9
:1008F00080072ED4FFF7D0FD401BB842F7D9032064
:1009000037E000210160FFF7C7FD0546306880072A
:100910007FF58DAFFFF7C0FD411B03200229F5D9FC
:1009200027E020F001003067306F20F004003067CE
:10093000FFF7B2FD0546002FD7D141F28837306F5F
:10094000800706D5FFF7A8FD411B0320B942F6D961
:100950000FE0B8F1000F1EBF306C20F08050306403
:10096000A769002F5DD0B06800F00C00082803D103
:10097000012002B0BDE8F0812C49002088460866BD
:10098000FFF78AFD0546022F09D13068800128D57E
:10099000FFF782FD411B03200229F6D9E9E7306801
:1009A00080013ED5FFF778FD411B03200329F6D3D4
:1009B000DFE720F480303060306820F48020306041
:1009C000FFF76AFD0546002F7FF4F2AE3068800322
:1009D0007FF5FEAEFFF760FD411B03206429F5D9CA
:1009E000C7E704F11C078FCF0843D90340EA821000
:1009F0004FF6FF72914340EA0760A1F5803108434A
:100A000070600120C8F86000FFF746FD04463068BA
:100A1000800106D4FFF740FD011B03200229F6D90F
:100A2000A7E70020A5E700BF0038024000004742CA
:100A300000700040411E0020B0EB116F1CBF012070
:100A40007047044AF023516003490B7007219060FE
:100A50001160704710E000E023ED00E0FEE70000C9
:100A60002DE9F04387B000263048314C01224FF485
:100A700080554FF0010906960196016841F0040186
:100A80000160016801F0040101910199019601687A
:100A900041F080010160016801F08001019101993C
:100AA0000196016841F002010160016801F0020154
:100AB000019101990196016841F0010101604FF433
:100AC0008051006800F00100019001982046FFF776
:100AD000DEFC2046F82100224FF0F808FFF7D7FC93
:100AE000CDE90466CDE9025902AD124F20462946F0
:100AF000B84711480496294603904FF4804002906D
:100B00002046B84703202946CDE904902046CDE988
:100B10000289B847282002210022FFF72FFD282054
:100B2000FFF71EFD07B0BDE8F08300BF303802407C
:100B300000040240F502000800001110FEE77047B3
:100B40005A4900200022082A08BF00F08FB800236D
:100B500002E001F833000133802BFAD10131013278
:100B6000F1E700BF43B2002B1CDB3F291AD810B5B8
:100B70004E4B4FF0070C002A03EBC00EACEBD10339
:100B80002CEA010C4FF00101DCB201FA0CF11EF865
:100B9000040040EA010308BF20EA01030EF8043014
:100BA000BDE81040704700BFB0B52F4C01250020B4
:100BB000256065602561E560E561A561606164208F
:100BC000FFF766FB65613A4CAE200021A047D520B7
:100BD0000021A04750200021A047A8200021A047C5
:100BE0003F200021A047D3200021A0470020002162
:100BF000A04740200021A0478D200021A0471420BD
:100C00000021A04720200021A04702200021A0476A
:100C1000A1200021A047C0200021A047DA20002108
:100C2000A04712200021A04781200021A047EF20EB
:100C30000021A047D9200021A047F1200021A04792
:100C4000DB200021A04730200021A047A420002164
:100C5000A047A6200021A047AF200021A047BDE863
:100C6000B040FFF76DBF00BF80824042F8B50F4D26
:100C70000F4E0024082C08BFF8BDA4F1500000213D
:100C80000027C0B2B04700200021B047102000214B
:100C9000B04705E015F83700012100F0E9F8013709
:100CA000802FF7D101350134E4E700BF10000020A8
:100CB000710E00082DE9F04F85B08A4659070646A7
:100CC0004FF001001C464FF0000B4FEAD301554690
:100CD00018BF00EBD301580848432649C0B204901E
:100CE000A2F12000C2B20E980392B0FA80F0470938
:100CF00002EBC20001EB800002901F4800EB0210E3
:100D0000019031E0182C0AD0102C0AD00C2C2ED1D6
:100D100003981A4900EB400001EB800002E00298C2
:100D200000E0019858444FF0000890F8009003E06C
:100D300008F101084FEA4909B8F1070F12D84FFA34
:100D400089F0E9B2B0F1FF3FF0B2CCBF3A460E9A5B
:100D5000FFF708FF0135E8B2A0EB0A00A042E7D197
:100D6000013655460BF1010B04988345CAD305B0F3
:100D7000BDE8F08F1A1B00082A150008B6100008FD
:100D80002DE9F84F07460A981C4692460E46A3F1F5
:100D900001094FF000084FF0000B450800204445C2
:100DA00008BFBDE8F88FC0432044C1B20A2000F05C
:100DB00063F9BAFBF0F00A21BBF1000FB0FBF1F1CF
:100DC00001EB8101A0EB410104D1C14502DD99B1E4
:100DD0004FF0010B012041F030010A9B009005FB10
:100DE0000870CAB23146C0B2FFF764FF08F10101D2
:100DF00008F101008846D2E701200A9B31462022F3
:100E0000009005FB0870C0B2FFF754FF4FF0000BD5
:100E1000ECE72DE9F84F074680201C4615460E46A4
:100E2000C3F140094FEA530A4FF0010BA0EB5308FE
:100E30002A78A2F12000C0B25E2888BFBDE8F88FF2
:100E4000F8B280453CBF00272644F0B2814504DA61
:100E5000FFF776FE2A7800260027F8B2F1B2234683
:100E6000CDF800B0FFF726FF57440135E0E700005A
:100E700080B50C4A4FF0000C4FF0010ED1600021FC
:100E8000C2F810C008E0C3B2C2F800C0013140008F
:100E9000DB095360C2F800E00729F4D90120106192
:100EA000D06080BD8C82404270477047FFF7F8BA2F
:100EB000B0B592B000241E480225CDE90A44CDE920
:100EC00008440194016841F080510160006800F01D
:100ED00080500190019801941648016841F48041C6
:100EE0000160A821006800F480400190019804206E
:100EF00011901095CDE90E014FF48000CDE90C5012
:100F00004FF4803007900120069006A8FFF726FCDA
:100F10004FF48050052105904FF4A05004900F200D
:100F2000CDE90254019001A8FFF756FB12B0B0BD05
:100F3000403802400070004010B50E480F4CD0F809
:100F4000801041F47001C0F880100B490A6842F02B
:100F500001020A6000228A600B6823400B60084B84
:100F60004B600B6823F480230B60CA604FF0006174
:100F7000016010BD08ED00E000380240FFFFF6FE02
:100F800010300024FEE7000010B5074C00F00F03FE
:100F9000044AB0F1FF3F2344C8BF8318080118700A
:100FA00010BD00BF00E400E014ED00E082B0FFF7E8
:100FB00081FAFFF77DFFFFF753FDFFF7F5FD1D4CAD
:100FC0001DA2002000211823A0471EA200201821E6
:100FD0001023A0471EA2002028210C230C25A04787
:100FE0001FA2002034210C23A0471FA2402034213F
:100FF0000C23A047FFF73AFE1D4E1E4C012724206C
:10100000342100220C2337600097FFF753FE5E2047
:101010003421002203230095FFF7B2FEFFF726FEDE
:1010200020464FF48051FFF72BFA4FF47A70FFF708
:101030002FF9E4E7130E000820205345525645527D
:1010400020000000536572766F2064726976650037
:1010500054494D4520323031372F372F323300007D
:1010600041534349493A000053504545443A000032
:101070008482404200040240024601200B0608BF61
:10108000704750430139F9E702E008C8121F08C150
:10109000002AFAD170477047002001E001C1121FF9
:1010A000002AFBD170470000000000000000010290
:1010B000030406070809000000000000000000000B
:1010C0000000000000003F400000000000000000A1
:1010D0003000400030004000000009000BC03D001F
:1010E0000BC03D00090018C024407FE02240318041
:1010F0000000180024C01B000D80324001800380D6
:101100001C4027401C800740004010006000000089
:101110000000000000000000000000001F802040D0
:1011200040200000402020401F80000000000900F7
:1011300006001F80060009000000040004003F8034
:101140000400040000000010006000000000000027
:10115000000004000400040004000400000000007B
:1011600000400000000000000000002001C0060058
:101170003800400000001F802040204020401F8099
:101180000000000010403FC000400000000018C0F8
:10119000214022402440184000001080204024407C
:1011A00024401B80000002000D0011003FC00140E0
:1011B00000003C80244024402440238000001F8005
:1011C000244024403440038000003000200027C029
:1011D0003800200000001B802440244024401B8055
:1011E00000001C0022C0224022401F80000000009E
:1011F0000000084000000000000000000000046043
:10120000000000000000000004000A00110020801F
:101210004040090009000900090009000000000021
:101220004040208011000A000400180020002340E4
:101230002400180000001F802040274029401F4044
:101240000000004007C039000F0001C000402040EE
:101250003FC0244024401B8000001F8020402040CD
:1012600020403080000020403FC0204020401F80B0
:10127000000020403FC024402E4030C000002040ED
:101280003FC024402E00300000000F00108020409E
:1012900022403380020020403FC0040004003FC0D1
:1012A0002040204020403FC02040204000000060FF
:1012B000202020203FC02000200020403FC02440AC
:1012C0000B0030C0204020403FC020400040004084
:1012D00000C03FC03C0003C03C003FC000002040B5
:1012E0003FC00C4023003FC020001F802040204012
:1012F00020401F80000020403FC0244024001800F0
:1013000000001F802140214020E01FA0000020405D
:101310003FC02440260019C0004018C0244024408B
:10132000224031800000300020403FC0204030008B
:10133000000020003F80004000403F80200020004F
:101340003E0001C0070038002000380007C03C0004
:1013500007C038000000204039C0060039C02040D6
:1013600000002000384007C0384020000000304016
:1013700021C02640384020C00000000000007FE06F
:10138000402040200000000070000C00038000405E
:1013900000000000402040207FE00000000000002E
:1013A000200040002000000000000010001000108D
:1013B00000100010001000000000400000000000BD
:1013C0000000000002800540054003C000402000EE
:1013D0003FC004400440038000000000038004403C
:1013E00004400640000000000380044024403FC049
:1013F000004000000380054005400340000000005D
:1014000004401FC0244024402000000002E005509A
:1014100005500650042020403FC00440040003C093
:1014200000400000044027C0004000000000001001
:101430000010041027E00000000020403FC00140E1
:10144000070004C00440204020403FC0004000404E
:10145000000007C0040007C0040003C000000440EF
:1014600007C00440040003C00040000003800440A3
:10147000044003800000041007F00450044003807F
:101480000000000003800440045007F000100440F6
:1014900007C00240040004000000000006400540B0
:1014A000054004C00000000004001F80044000400C
:1014B0000000040007800040044007C00040040012
:1014C000070004C0018006000400060001C00700F8
:1014D00001C006000000044006C0010006C0044030
:1014E00000000410071004E0018006000400000062
:1014F000044005C006400440000000000000040055
:101500007BE040200000000000000000FFF0000031
:101510000000000040207BE00400000000004000CC
:10152000800040002000200040000000000000007B
:1015300000000000000000000000000000000000AB
:101540001FCC000C0000000000000000080030006C
:1015500060000800300060000000022003FC1E2034
:10156000022003FC1E200220000000000E181104BF
:101570003FFF10840C78000000000F0010840F382B
:1015800000C0077818840078000000780F8410C429
:1015900011240E9800E40084000808006800700020
:1015A000000000000000000000000000000000003B
:1015B00007E0181820044002000000004002200448
:1015C000181807E0000000000000024002400180FF
:1015D0000FF0018002400240000000800080008087
:1015E0000FF800800080008000000001000D000E58
:1015F00000000000000000000000000000800080EB
:10160000008000800080008000800000000C000C42
:1016100000000000000000000000000000060018AC
:1016200000600180060018002000000007F0080894
:1016300010041004080807F0000000000804080463
:101640001FFC000400040000000000000E0C101439
:101650001024104411840E0C000000000C1810041B
:101660001104110412880C700000000000E0032037
:10167000042408241FFC0024000000001F9810848C
:1016800011041104108810700000000007F0088891
:101690001104110418880070000000001C001000E4
:1016A00010FC13001C001000000000000E38114454
:1016B0001084108411440E38000000000700088CCC
:1016C00010441044088807F00000000000000000EB
:1016D000030C030C000000000000000000000001EB
:1016E0000106000000000000000000000080014032
:1016F000022004100808100400000220022002202A
:10170000022002200220022000000000100408082D
:101710000410022001400080000000000E001200B2
:10172000100C106C10800F00000003E00C1813E484
:10173000142417C4082807D000000004003C03C488
:101740001C40074000E4001C000410041FFC1104AE
:10175000110411040E880070000003E00C1810043E
:101760001004100410081C10000010041FFC1004CA
:1017700010041004080807F0000010041FFC1104F6
:10178000110417C410040818000010041FFC1104F1
:10179000110017C010000800000003E00C1810042E
:1017A000100410441C780040000010041FFC10843A
:1017B0000080008010841FFC10040000100410043E
:1017C0001FFC1004100400000000000300011001C1
:1017D00010011FFE10001000000010041FFC110477
:1017E00003801464181C1004000010041FFC100473
:1017F000000400040004000C000010041FFC1F0083
:1018000000FC1F001FFC1004000010041FFC0C044F
:10181000030000E010181FFC100007F00808100477
:1018200010041004080807F0000010041FFC1084C6
:101830001080108010800F00000007F0081810249E
:101840001024101C080A07F2000010041FFC1104E9
:10185000110011C011300E0C000400000E1C110408
:101860001084108410441C3800001800100010046C
:101870001FFC100410001800000010001FF81004D6
:101880000004000410041FF8100010001E0011E0F6
:10189000001C007013801C0010001FC0103C00E0F2
:1018A0001F0000E0103C1FC000001004180C16348C
:1018B00001C001C01634180C100410001C001304E1
:1018C00000FC13041C00100000000804101C10642D
:1018D000108413041C041018000000000000000015
:1018E0007FFE4002400240020000000030000C0079
:1018F00003800060001C0003000000004002400262
:1019000040027FFE000000000000000000002000F8
:1019100040004000400020000000000100010001E4
:101920000001000100010001000100004000400032
:1019300020000000000000000000000000980124CA
:1019400001440144014400FC000410001FFC008815
:10195000010401040088007000000000007000888D
:1019600001040104010400880000000000700088E8
:101970000104010411081FFC0004000000F80144E8
:1019800001440144014400C80000000001040104B6
:101990000FFC1104110411001800000000D60129E9
:1019A0000129012901C90106000010041FFC00845F
:1019B00001000100010400FC0004000001041904FE
:1019C00019FC0004000400000000000000030001F6
:1019D0000101190119FE0000000010041FFC002481
:1019E000004001B4010C01040000000010041004C8
:1019F0001FFC0004000400000000010401FC0104BD
:101A0000010001FC0104010000FC010401FC008450
:101A100001000100010400FC0004000000F80104C2
:101A200001040104010400F80000010101FF008528
:101A300001040104008800700000000000700088AC
:101A400001040104010501FF00010104010401FC7E
:101A500000840104010001800000000000CC01248A
:101A6000012401240124019800000000010001006C
:101A700007F80104010400000000010001F800045F
:101A800000040004010801FC000401000180017051
:101A9000000C001001600180010001F0010C003019
:101AA00001C00030010C01F0010000000104018CB4
:101AB00000740170018C01040000010101810171B9
:101AC000000E001801600180010000000184010C7B
:101AD000013401440184010C0000000000000000FA
:101AE000000001003EFC4002400200000000000037
:101AF0000000FFFF00000000000000004002400264
:101B00003EFC0100000000000000000060008000BA
:101B10008000400040002000200000000000000085
:101B200000000000000000000000000000000000B5
:101B300000000000000000000000000000000000A5
:101B4000000000000000000000000000000F8038CE
:101B50000FFE380F80380000000000000000000079
:101B600000000000000000000100000600000C0062
:101B7000003800003100000600000C0000380000B2
:101B80003000000000000000000061800067F807DE
:101B9000F9800061800061800061800061800067E1
:101BA000F807F980006180000000000000000000DC
:101BB00001C0E003E0F00630080418081FFFFE042F
:101BC0000E080787F00381E000000000000001F02C
:101BD00000060C00040408060C7001F9C0000E0099
:101BE000003BE000EC18070808040C180003E000B4
:101BF00000000001E00007F003F818041C080417B7
:101C00000807E1D003C0E00023B0003C0800200832
:101C10000000100000000000000100003100003250
:101C200000001C0000000000000000000000000098
:101C300000000000000000000000000000000000A4
:101C4000000000000000000000007F0001FFC0074E
:101C500080F00C00181000042000020000000000BA
:101C6000002000021000040C00180780F001FFC0E3
:101C7000007F0000000000000000000000000000E5
:101C80000000000000004200006600006600003C0A
:101C90000000180003FFC0001800003C00006600B0
:101CA000006600004200000000000800000800007C
:101CB000080000080000080001FFC000080000083C
:101CC00000000800000800000800000000000001FB
:101CD00000003100003200001C0000000000000085
:101CE00000000000000000000000000000000000F4
:101CF00000000800000800000800000800000800BC
:101D000000080000080000080000080000080000AB
:101D10000000000000000000000038000038000053
:101D2000380000000000000000000000000000007B
:101D300000000000000000000000000600001C0081
:101D40000070000180000E0000380000C000070095
:101D5000001C0000300000000000000000007F8038
:101D600001FFE00380700600180400080400080664
:101D7000001803807001FFE0007F80000000000079
:101D80000000000001000801000801000803FFF83E
:101D900007FFF8000008000008000008000000002D
:101DA000000000000001C03802C05804009804017F
:101DB00018040218040418061C1803F81801E0F8A7
:101DC00000000000000000000001C0E003C0F004BB
:101DD000000804080804080806180803F41801E7B6
:101DE000F00001E00000000000000000000003001F
:101DF000000D0000110000610000810803010807C8
:101E0000FFF80FFFF80001080001080000000000C3
:101E1000000000E007FCD0060808061008061008BD
:101E2000061008061838060FF00607C0000000006C
:101E30000000000000003F8001FFE0038430020842
:101E400018041008041008041008071810030FF0F5
:101E50000007C000000000000000000003C00007F1
:101E600000000600000600F80607F806180006E065
:101E70000007000006000000000000000001E1E093
:101E800003F7F0063410041808041808040C0804BA
:101E90000C0806161803F3F001C1E0000000000072
:101EA0000000F80003FC30030638040208040208AE
:101EB0000402080404100308F001FFC0007F0000C2
:101EC0000000000000000000000000000000000012
:101ED000000070380070380070380000000000000A
:101EE00000000000000000000000000000000000F2
:101EF000000000000000301A00301C00000000004C
:101F000000000000000000000000000000000000D1
:101F10000008000014000022000041000080800141
:101F2000004002002004001008000800000000002B
:101F300000002100002100002100002100002100FC
:101F400000210000210000210000210000210000EC
:101F5000000000000000000008000804001002005B
:101F60002001004000808000410000220000140099
:101F700000080000000000000003C00004C00004CE
:101F80000000080038080F380808380810000C3026
:101F90000007E00003C000000000000000003F80D8
:101FA00000FFE0038070020F1006708804C08804F0
:101FB0008308047F8802C09003012000FE400000D7
:101FC000080000180001F8003E0801C200070200E6
:101FD00007E20000FE00001FC80001F80000380002
:101FE000000804000807FFF807FFF80408080408C1
:101FF0000804080804080806180803F41801E7F0A4
:102000000001E0000000000000003F8001FFE0034D
:10201000807002001804000804000804000804008E
:10202000100600200780C000000004000807FFF829
:1020300007FFF80400080400080400080400180260
:10204000001003807001FFE0007F800000000400AA
:102050000807FFF807FFF804080804080804080840
:10206000040808043E080400080600180100600087
:10207000000004000807FFF807FFF8040808040838
:1020800000040800040800043E00060000060000EA
:10209000018000000000000000003F8001FFE0031D
:1020A00080700600180400080402080402080203F5
:1020B000F00783F000020000020004000807FFF8A8
:1020C00007FFF804080800080000080000080000E6
:1020D000080004080807FFF807FFF80400080000DC
:1020E0000000000004000804000804000807FFF8CE
:1020F00007FFF804000804000804000800000000BE
:1021000000000000000000060000070000010400BD
:102110000104000104000307FFFE07FFFC040000A8
:1021200004000004000004000807FFF807FFF8049B
:102130000C08001800003E0004C7800503C8060014
:10214000F804003804001800000804000807FFF82D
:1021500007FFF8040008000008000008000008005D
:1021600000080000080000180000600000000400E3
:102170000807FFF807800807FC00007FC00003F88D
:102180000007C000780007800807FFF807FFF80481
:10219000000804000807FFF807000803C00000E07B
:1021A00000003800001E000007000001C00400F01D
:1021B00007FFF8040000000000007F8001FFE0033B
:1021C00080700600180400080400080600180300C8
:1021D0003001FFE0007F8000000004000807FFF8E6
:1021E00007FFF804040804040004040004040004C5
:1021F0000400060C0003F80001F0000000000000DD
:1022000000007F8001FFE0038070060088040088E2
:102210000400C806003C03003E01FFE6007F840086
:10222000000004000807FFF807FFF8040808040886
:1022300000040C00040F00040BC00610F003F0387B
:1022400001E00800000800000001E0F803F030069B
:102250003010041808041808040C08040C080206BE
:10226000180207F00781E00000000180000600006E
:1022700004000004000004000807FFF807FFF8044A
:1022800000080400000400000600000180000400B3
:102290000007FFE007FFF004001800000800000836
:1022A00000000800000800000804001007FFE00418
:1022B000000004000006000007E00007FE00041F05
:1022C000E00001F80000380001E0043E0007C00013
:1022D00006000004000004000007E00007FFC0043F
:1022E0001FF80007C007F80007FF80043FF8000749
:1022F000C004F8000700000400000000000400080B
:1023000006001807C07805F1C8003E00001F8004D1
:1023100063E80780F80600180400080000000400C5
:102320000006000007800007E008047C08001FF892
:102330000007F800180804E0080700000600000481
:1023400000000000000100080600380400F8040343
:10235000E8040F08047C0805F00807C00807001807
:102360000400600000000000000000000000000009
:1023700000000000003FFFFE2000022000022000BD
:102380000220000220000200000000000000000007
:1023900008000007000000C0000038000006000030
:1023A00001C000003000000E00000100000000002D
:1023B0000000000020000220000220000220000295
:1023C0002000023FFFFE00000000000000000000AF
:1023D00000000000000000000000000800001000E5
:1023E0000030000020000030000010000008000055
:1023F00000000000000000000100000100000100DA
:1024000000010000010000010000010000010000C7
:1024100001000001000001000001000000000000B8
:10242000000000200000200000100000100000004C
:10243000000000000000000000000000000000009C
:10244000000000F00019F8001B1800220800260800
:10245000002408002410003FF8001FF800000800C6
:10246000001800000004000007FFF80FFFF000183C
:1024700018001008002008002008003018001FF085
:10248000000FC00000000000000007C0001FF000A7
:102490001830002008002008002008003C08001C1C
:1024A000100000600000000000000000000007C0F5
:1024B000001FF00038180020080020080020080441
:1024C000101007FFF80FFFF00000100000000000E0
:1024D000000000000007C0001FF0001230002218AA
:1024E000002208002208003208001E10000E200002
:1024F000000000000000200000200800200801FF6C
:10250000F803FFF80620080420080420080720002C
:1025100003000000000000000000000E000E6E002E
:102520001FF30031B10020B10020B1003191001F34
:1025300013002E1E00200E003000000000040008D2
:1025400007FFF80FFFF8001008002000002000002F
:102550002008003FF8001FF80000080000000000FD
:1025600000000000002008002008002008063FF8B6
:10257000063FF80000080000080000080000000006
:102580000000000000000000000003000003002025
:1025900001002001002003063FFE063FFC00000072
:1025A00000000000000000000004000807FFF80F12
:1025B000FFF8000188000300002FC00038F8002059
:1025C00038002008000008000000000000000000A3
:1025D00004000804000804000807FFF80FFFF800D3
:1025E00000080000080000080000000000000020B3
:1025F00008003FF8003FF8001008002000003FF8F6
:10260000003FF8001008002000003FF8003FF800ED
:102610000008000000002008003FF8003FF800100C
:1026200008001000002000002008003FF8001FF8FC
:102630000000080000000000000007C0000FF000CC
:10264000183000300800200800200800300800186A
:1026500030000FF00007C000000000000000200163
:10266000003FFF003FFF001011002009002008007C
:102670002008003038001FF0000FC00000000000EC
:10268000000007C0001FF0003818002008002008D4
:10269000002009001011001FFF003FFF0000010093
:1026A0000000002008002008002008003FF8003F3C
:1026B000F800080800100800200800200000300082
:1026C000003000000000000000000000000C780056
:1026D0001E1800330800230800210800218800216B
:1026E000980030F00038600000000000000020007A
:1026F00000200000200000FFF003FFF80020080089
:102700002008002008000030000000000000000049
:1027100000002000003FF0007FF8000018000008D3
:10272000000008002010003FF8007FF000001000BB
:102730000000000000002000003000003C00003FCE
:10274000800023F0000078000070002380003C002F
:10275000003000002000002000003C00003FE000AE
:1027600023F80000E0002700003E00003FE00021C9
:10277000F80001E0003E00002000000000002008FA
:10278000002008003838003E680027800003C80099
:102790002CF8003838002018002008000000000045
:1027A00000002000003003003C01003F830023ECC8
:1027B000000070002380003C00002000002000008A
:1027C0000000000000000000003808002038002051
:1027D000F80023E8002F88003E0800380800201881
:1027E0000000700000000000000000000000000079
:1027F00000000000000008000014001FF7FC30007B
:1028000006200002000000000000000000000000A0
:10281000000000000000000000000000FFFFFF00BB
:1028200000000000000000000000000000000000A8
:10283000000000002000023000061FF7FC0014001A
:102840000008000000000000000000000000000080
:102850000000000000180000600000400000400080
:102860000020000010000008000004000004000028
:102870000C00001000000000982800080000002054
:102880001000000088100008A82800081000002090
:102890000808000098100008010000001000000067
:0828A0000024F4000000000018
:040000050800018965
:00000001FF
